S01A00004C63645F4B65797061645F447269766572732E73726563FC
S11300000C942A000C943F000C943F000C943F0085
S11300100C943F000C943F000C943F000C943F0060
S11300200C943F000C943F000C943F000C943F0050
S11300300C943F000C943F000C943F000C943F0040
S11300400C943F000C943F000C943F000C943F0030
S11300500C943F0011241FBECFE5D8E0DEBFCDBF16
S113006010E0A0E6B0E0E8E0F3E002C005900D92F5
S1130070A836B107D9F70E9406010C9482010C94AA
S1130080000088B3886088BB83ED90E30197F1F7A3
S113009000C0000088B3877F88BB08958AB38F703F
S11300A08ABB88B3846088BB88B38D7F88BB0E9479
S11300B041008AB3806F8ABB88B38B7F88BB089565
S11300C0CF93C82F0E944E008BB38F709C2F907FCC
S11300D0892B8BBB88B3897F88BB0E9441002BB3DB
S11300E030E1C39FC0011124922F9F70892B8BBBD9
S11300F088B3897F88BB0E944100CF91089581E035
S11301000E946000089587E893E10197F1F700C029
S1130110000087B38E6087BB88B3817F88BB8FEF75
S11301208ABB0E947F0082E00E94600088E20E94F5
S1130130600086E00E94600080E80E9460008FE01A
S11301400E9460000895CF93C82F8BB38F709C2FAB
S1130150907F892B8BBB88B3826088BB88B38B7FED
S113016088BB0E9441002BB330E1C39FC00111241E
S1130170922F9F70892B8BBB88B3826088BB88B316
S11301808B7F88BB0E944100CF910895CF93DF936A
S1130190C82FD62F813031F4603120F480E8860FE7
S11301A00E946000C23031F4D03120F480EC8D0F15
S11301B00E946000DF91CF9108950F931F93CF9316
S11301C0DF938C01C0E0D0E018C021960F5F1F4F71
S11301D00E94A300C031D10529F460E082E00E94AE
S11301E0C6000BC0C032D10541F40E947F0060E01C
S11301F081E00E94C600C0E0D0E0F8018081811156
S1130200E4CFDF91CF911F910F9108950E94830055
S11302100E94310160E080E00E94C60080E690E028
S11302200E94DD008DE40E943D0181E40E943D01B5
S11302308EE40E943D0181E40E943D018CE40E9411
S11302403D016CE271E080E090E00E9448010E9470
S113025044010E94A3000E946501862F0E94A3000E
S1130260F6CF83E389B98BB18D7F8BB98AB188606E
S11302708AB98AB180618AB908959BB1929596959D
S11302809770D9F38CB908955F9BFECF8CB1089514
S1130290CF93DF9300D000D0CDB7DEB769837A83E4
S11302A08B839C83862F0E943D018A810E943D019D
S11302B08B810E943D018C810E943D010F900F9023
S11302C00F900F90DF91CF910895CF93DF9300D0DB
S11302D000D0CDB7DEB70E94440189830E94440157
S11302E08A830E9444018B830E9444018C83698128
S11302F07A818B819C810F900F900F900F90DF91EA
S10B0300CF910895F894FFCF9A
S10B03085541525420545200E7
S9030000FC
