S01A00004C63645F4B65797061645F447269766572732E73726563FC
S11300000C942A000C9447000C9447000C9447006D
S11300100C9447000C9447000C9447000C94470040
S11300200C9447000C9447000C9447000C94470030
S11300300C9447000C9447000C9447000C94A001C6
S11300400C9447000C9447000C9447000C94470010
S11300500C94470011241FBECFE5D8E0DEBFCDBF0E
S113006010E0A0E6B0E0EAECF3E002C005900D92E7
S1130070A038B107D9F720E0A0E8B0E001C01D9294
S1130080A338B207E1F70E942F010C94E3010C940A
S1130090000088B3886088BB87E893E10197F1F793
S11300A000C0000088B3877F88BB0895CF93C82F12
S11300B083EC99E00197F1F700C0000088B38260F7
S11300C088BB88B38B7F88BB8BB38F709C2F907F4A
S11300D0892B8BBB0E94490088B3826088BB88B39C
S11300E08B7F88BB2BB330E1C39FC0011124922FB7
S11300F09F70892B8BBB0E944900CF910895CF93A9
S1130100C82F83EC99E00197F1F700C0000088B391
S11301108D7F88BB88B38B7F88BB8BB38F709C2FFC
S1130120907F892B8BBB0E94490088B38D7F88BB4D
S113013088B38B7F88BB2BB330E1C39FC0011124EC
S1130140922F9F70892B8BBB0E944900CF910895F9
S11301508130910549F4862F972F409778F480E8F1
S1130160860F0E947F000895029741F4862F972FEF
S1130170409720F480EC860F0E947F0008950F932F
S11301801F93CF93DF938C01C0E0D0E01EC0219673
S1130190C131D10539F460E070E082E090E00E9462
S11301A0A8000EC0C132D1055CF081E00E947F003E
S11301B060E070E081E090E00E94A800C0E0D0E040
S11301C0F80181918F010E945600F801808181110C
S11301D0DECFDF91CF911F910F91089581E00E94AE
S11301E07F00089587E893E10197F1F700C00000CC
S11301F08AB3806F8ABB87B3886087BB87B382600A
S113020087BB87B3846087BB88B3817F88BB80E367
S11302100E947F0083EC99E00197F1F700C0000091
S113022080E30E947F0092E49A95F1F700C080E396
S11302300E947F0082E00E947F0088E20E947F008B
S113024088E00E947F0088E00E947F000E94EE0008
S113025086E00E947F008FE00E947F0008957894DA
S11302600E94F2000E945F0160E070E081E090E093
S11302700E94A8008BE690E00E94BF0083E790E014
S11302800E94720189E790E00E949201C0E060E060
S113029070E081E090E00E94A800EC2FF0E0E05ACA
S11302A0FF4F80810E945600CF5FCA3009F4C0E03E
S11302B087EA91E60197F1F700C00000E8CF83E3F5
S11302C089B98BB18D7F8BB98AB188608AB98AB1BB
S11302D080618AB908959BB1929596959770D9F3E8
S11302E08CB908950F931F93CF938C01C0E003C082
S11302F00E946B01CF5FF801EC0FF11D8081C817DC
S1130300B8F38DE00E946B01CF911F910F91089576
S11303108CB908958AB180648AB908958AB18F7BB3
S11303208AB908959C0190916A00913041F4309308
S113033082002093810010926A000E948A0108952D
S11303401F920F920FB60F9211242F933F934F9346
S11303505F936F937F938F939F93AF93BF93EF9329
S1130360FF9380918000E0918100F0918200E80F7A
S1130370F11D80810E94880180918000E0918100BC
S1130380F0918200E80FF11D9081992321F08F5F95
S11303908093800007C00E948E011092800081E04B
S11303A080936A00FF91EF91BF91AF919F918F91DC
S11303B07F916F915F914F913F912F910F900FBE5D
S10D03C00F901F901895F894FFCFDA
S11303CA30313233343536373839015541525420B5
S11303DA5458004D414E414C0041686D65642000FB
S9030000FC
