:100000000C942A000C9434000C9434000C943400AA
:100010000C9434000C9434000C9434000C94340090
:100020000C9434000C9434000C9434000C94340080
:100030000C9434000C9434000C9434000C94340070
:100040000C9434000C9434000C9434000C94340060
:100050000C94340011241FBECFE5D8E0DEBFCDBF25
:100060000E9436000C9488000C94000081B38062DA
:1000700081BB81B3806481BB81B3806881BB80E038
:10008000809BFECF81110EC092B3906292BB2FEF86
:1000900039E698E1215030409040E1F700C000007F
:1000A0008F5FEECF813071F492B3906492BB2FEFEB
:1000B00039E698E1215030409040E1F700C000005F
:1000C0008F5FDECF823071F492B3906892BB2FEFD6
:1000D00039E698E1215030409040E1F700C000003F
:1000E0008F5FCECF833061F682B38F7D82BB82B3C8
:1000F0008F7B82BB82B38F7782BB2FEF39E688E19B
:10010000215030408040E1F700C0000080E0B8CFCF
:04011000F894FFCF91
:00000001FF
