:100000000C942A000C9434000C9434000C943400AA
:100010000C9434000C9434000C9434000C94340090
:100020000C9434000C9434000C9434000C94340080
:100030000C9434000C9434000C9434000C94340070
:100040000C9434000C9434000C9434000C94340060
:100050000C94340011241FBECFE5D8E0DEBFCDBF25
:100060000E943F000C9453000C94000080E487BB76
:100070008DB908958FB9779BFECF8FB108950E94F7
:1000800036008FEF8ABBCFEF2FE38DE093E0215056
:1000900080409040E1F700C000008C2F0E943A00A1
:0A00A0008BBBC150F1CFF894FFCFE5
:00000001FF
