:100000000C942A000C9453000C946F000C948B00F9
:100010000C94B2000C94B2000C94B2000C94B20098
:100020000C94B2000C94B2000C94B2000C94B20088
:100030000C94B2000C94B2000C94B2000C94B20078
:100040000C94B2000C94B2000C94B2000C94B20068
:100050000C94B20011241FBECFE5D8E0DEBFCDBFA7
:0C0060000E9436000C94A700F894FFCF1B
:10006C0081B3806E81BB78948BB7806E8BBF85B764
:10007C00816085BF85B78D7F85BF85B78C6085BF57
:10008C0084B78F7B84BF82B38F7D82BB82B38F7B1F
:0A009C0082BB82B38F7782BBF6CFE0
:1000A6001F920F920FB60F9211242F938F939F9347
:1000B60082B3806282BB2FEF84E39CE021508040B4
:1000C6009040E1F700C000009F918F912F910F9013
:0800D6000FBE0F901F9018955A
:1000DE001F920F920FB60F9211242F938F939F930F
:1000EE0082B3806482BB2FEF84E39CE0215080407A
:1000FE009040E1F700C000009F918F912F910F90DB
:08010E000FBE0F901F90189521
:100116001F920F920FB60F9211242F938F939F93D6
:1001260082B3806882BB2FEF84E39CE0215080403D
:100136009040E1F700C000009F918F912F910F90A2
:080146000FBE0F901F901895E9
:10014E00EC010E94B7000E94B600CE010E94B800DA
:06015E00CE010E94B40076
:040164000C940000F7
:040168000E943400BD
:02016C000895F4
:02016E000895F2
:020170000895F0
:00000001FF
