:100000000C942A000C943F000C943F000C943F0089
:100010000C943F000C943F000C943F000C943F0064
:100020000C943F000C943F000C943F000C943F0054
:100030000C943F000C943F000C943F000C943F0044
:100040000C943F000C943F000C943F000C943F0034
:100050000C943F0011241FBECFE5D8E0DEBFCDBF1A
:1000600010E0A0E6B0E0E4EBF0E002C005900D92F5
:10007000AA36B107D9F70E9441000C9458000C949D
:1000800000008FEF8ABB80E010C0E82FF0E0E05A5C
:10009000FF4F90819BBB2FE73AE196E02150304023
:1000A0009040E1F700C000008F5F8A3070F3EBCF23
:0400B000F894FFCFF2
:0A00B4003F065B4F666D7D077F6F0E
:00000001FF
